S00F000030332D6770696F2E73726563D6
S11300000C9434000C943E000C943E000C943E007E
S11300100C943E000C943E000C943E000C943E0064
S11300200C943E000C943E000C943E000C943E0054
S11300300C943E000C943E000C943E000C943E0044
S11300400C943E000C943E000C943E000C943E0034
S11300500C943E000C943E000C943E000C943E0024
S11300600C943E000C943E0011241FBECFEFD8E048
S1130070DEBFCDBF0E9481000C94BC000C94000034
S1130080FC01408121E030E002C0220F331F6A9559
S1130090E2F7242B20830895FC01808121E030E0E5
S11300A002C0220F331F6A95E2F7922F909589239D
S11300B080838181282B21830895FC01908121E094
S11300C030E002C0220F331F6A95E2F720952923FE
S11300D020830895FC01408121E030E002C0220F1A
S11300E0331F6A95E2F7242720830895FC012081B9
S11300F081E090E002C0880F991F6A95E2F782239D
S1130100089565E084E290E00E94400065E085E2A5
S113011090E00E945D0065E087E290E00E9440006C
S113012065E088E290E00E945D0064E08AE290E08D
S11301300E944C002FEF89E698E1215080409040C6
S1130140E1F700C0000064E089E290E00E947600DC
S11301508111F0CF65E085E290E00E946A0065E0DD
S113016088E290E00E946A0064E089E290E00E94E4
S10F017076008111F9CFDECFF894FFCFA8
S9030000FC
