:100000000C9434000C943E000C943E000C943E0082
:100010000C943E000C943E000C943E000C943E0068
:100020000C943E000C943E000C943E000C943E0058
:100030000C943E000C943E000C943E000C943E0048
:100040000C943E000C943E000C943E000C943E0038
:100050000C943E000C943E000C943E000C943E0028
:100060000C943E000C943E0011241FBECFEFD8E04C
:10007000DEBFCDBF0E949E000C94F0000C940000E7
:10008000FC01408121E030E002C0220F331F6A955D
:10009000E2F7242B20830895FC01808121E030E0E9
:1000A00002C0220F331F6A95E2F7922F90958923A1
:1000B00080838181282B21830895FC01408121E0E8
:1000C00030E002C0220F331F6A95E2F7242B208311
:1000D0000895FC01408121E030E002C0220F331F6F
:1000E0006A95E2F7242720830895FC01208181E0AE
:1000F00090E002C0880F991F6A95E2F78223089565
:100100000F931F93CF93DF938C01D62FC0E06D2FF9
:10011000C8010E947500811102C0CF5F01C0C0E01C
:100120008FE39CE90197F1F700C00000C43079F734
:1001300081E0DF91CF911F910F910895C0E0D0E051
:1001400006C06C2F87E290E00E9440002196C530E7
:10015000D105BCF360E088E290E00E945D0064E0BD
:100160008AE290E00E944C0064E089E290E00E9404
:1001700080008823C9F3C0E0D0E02EC0C430D10590
:10018000ACF46C2F88E290E00E9469006C2F6F5FE6
:1001900088E290E00E9469002FEF89E698E1215003
:1001A00080409040E1F700C0000015C068E06C1B83
:1001B00088E290E00E94690067E06C1B88E290E0B2
:1001C0000E9469009FEF29E688E19150204080401D
:1001D000E1F700C000002196C830D1057CF2CBCFFA
:0401E000F894FFCFC1
:00000001FF
