S00B000050574D2E7372656325
S11300000C9434000C943E000C943E000C943E007E
S11300100C943E000C943E000C943E000C943E0064
S11300200C943E000C943E000C943E000C943E0054
S11300300C943E000C943E000C943E000C943E0044
S11300400C943E000C943E000C943E000C943E0034
S11300500C943E000C943E000C943E000C943E0024
S11300600C943E000C943E0011241FBECFEFD8E048
S1130070DEBFCDBF0E9440000C9459000C940000D8
S113008084B1806284B985B18F7D85B985B1806280
S113009085B987EE93E00197F1F700C0000085B1C0
S11300A08F7D85B987EE93E00197F1F700C00000DA
S10900B0EDCFF894FFCF30
S9030000FC
