:100000000C9434000C943E000C943E000C943E0082
:100010000C943E000C943E000C943E000C943E0068
:100020000C943E000C943E000C943E000C943E0058
:100030000C943E000C943E000C943E000C943E0048
:100040000C943E000C943E000C943E000C943E0038
:100050000C943E000C943E000C943E000C943E0028
:100060000C943E000C943E0011241FBECFEFD8E04C
:10007000DEBFCDBF0E9440000C9452000C940000E3
:10008000259A2D983D9A459854985C9A90E24C99FF
:10009000FECF85B1892785B988B1892788B94C9B5E
:0800A000FECFF5CFF894FFCF6D
:00000001FF
