S00C00006C6564732E7372656370
S11300000C9434000C943E000C943E000C943E007E
S11300100C943E000C943E000C943E000C943E0064
S11300200C943E000C943E000C943E000C943E0054
S11300300C943E000C943E000C943E000C943E0044
S11300400C943E000C943E000C943E000C943E0034
S11300500C943E000C943E000C943E000C943E0024
S11300600C943E000C943E0011241FBECFEFD8E048
S1130070DEBFCDBF0E9463000C9483000C9400008B
S1130080FC0141E050E002C0440F551F6A95E2F7BD
S113009090E0208130E024233523232B51F49F5F0B
S11300A0AFE3BCE91197F1F700C00000943089F781
S11300B008C08FE39CE90197F1F700C0000090E0CD
S11300C0E8CF81E00895259A2D983D9A4598549853
S11300D05C9AC0E22FEF89E698E12150804090407D
S11300E0E1F700C0000064E089E290E00E94400073
S11300F0882381F385B18C2785B988B18C2788B989
S10D01004C9BFECFE7CFF894FFCF2D
S9030000FC
