S00B00006C65642E73726563E4
S11300000C9434000C943E000C943E000C943E007E
S11300100C943E000C943E000C943E000C943E0064
S11300200C943E000C943E000C943E000C943E0054
S11300300C943E000C943E000C943E000C943E0044
S11300400C943E000C943E000C943E000C943E0034
S11300500C943E000C943E000C943E000C943E0024
S11300600C943E000C943E0011241FBECFEFD8E048
S1130070DEBFCDBF0E9472000C94A0000C9400005F
S1130080259A08952D9808950E9440002FEF89E63F
S113009098E1215080409040E1F700C000000E94A8
S11300A042002FEF84E39CE0215080409040E1F730
S11300B000C0000008950E9440002FEF83ED90E3FC
S11300C0215080409040E1F700C000000E944200AF
S11300D02FEF84E39CE0215080409040E1F700C082
S11300E0000008950E945B000E9444000E944400A6
S11300F02FEF87EA91E6215080409040E1F700C05D
S113010000000E9444002FEF87EA91E621508040CE
S11301109040E1F700C000000E9444000E944400A7
S11301200E945B000E945B000E945B002FEF87EA45
S113013091E6215080409040E1F700C00000D2CF0A
S1070140F894FFCF5D
S9030000FC
