:100000000C9434000C943E000C943E000C943E0082
:100010000C943E000C943E000C943E000C943E0068
:100020000C943E000C943E000C943E000C943E0058
:100030000C943E000C943E000C943E000C943E0048
:100040000C943E000C943E000C943E000C943E0038
:100050000C943E000C943E000C943E000C943E0028
:100060000C943E000C943E0011241FBECFEFD8E04C
:10007000DEBFCDBF0E946A000C949A000C94000071
:100080002D9A2FEF89E698E1215080409040E1F7CA
:1000900000C000002D982FEF84E39CE021508040A9
:1000A0009040E1F700C0000008952D9A2FEF83EDF6
:1000B00090E3215080409040E1F700C000002D986F
:1000C0002FEF84E39CE0215080409040E1F700C096
:1000D00000000895259A2D980E9455000E94400026
:1000E0000E9440002FEF87EA91E621508040904027
:1000F000E1F700C000000E9440002FEF87EA91E680
:10010000215080409040E1F700C000000E94400074
:100110000E9440000E9455000E9455000E94550018
:100120002FEF87EA91E6215080409040E1F700C030
:080130000000D2CFF894FFCFCC
:00000001FF
