:100000000C9434000C943E000C943E000C943E0082
:100010000C943E000C943E000C943E000C943E0068
:100020000C943E000C943E000C943E000C943E0058
:100030000C943E000C943E000C943E000C943E0048
:100040000C943E000C943E000C943E000C943E0038
:100050000C943E000C943E000C943E000C943E0028
:100060000C943E000C943E0011241FBECFEFD8E04C
:10007000DEBFCDBF0E9459000C948E000C9400008E
:10008000FC0190E0208130E0062E02C035952795D6
:100090000A94E2F720FD02C09F5F01C090E0AFE349
:1000A000BCE91197F1F700C00000943059F781E0E6
:1000B00008958FE187B981E088B98AB18F7E8AB9C6
:1000C0008BB180618BB964E089E290E00E944000CE
:1000D0008823C9F380E090E01DC0843091056CF462
:1000E00028B1220F28B92FEF39E648E121503040DE
:1000F0004040E1F700C000000CC028B1269528B9A7
:100100002FEF39E648E1215030404040E1F700C090
:10011000000001968830910504F3DCCFF894FFCFFE
:00000001FF
