S00F0000747261666669632E7372656336
S11300000C9434000C943E000C943E000C943E007E
S11300100C943E000C943E000C943E000C943E0064
S11300200C943E000C943E000C943E000C943E0054
S11300300C943E000C943E000C943E000C943E0044
S11300400C943E000C943E000C943E000C943E0034
S11300500C943E000C943E000C943E000C943E0024
S11300600C943E000C943E0011241FBECFEFD8E048
S1130070DEBFCDBF0E94AB000C945A010C9400006B
S1130080FC01408121E030E002C0220F331F6A9559
S1130090E2F7242B20830895FC01808121E030E0E5
S11300A002C0220F331F6A95E2F7922F909589239D
S11300B080838181282B21830895FC01908121E094
S11300C030E002C0220F331F6A95E2F720952923FE
S11300D020830895FC01408121E030E002C0220F1A
S11300E0331F6A95E2F7242B20830895FC01408195
S11300F021E030E002C0220F331F6A95E2F7242783
S113010020830895FC01208181E090E002C0880FE3
S1130110991F6A95E2F7822308950F931F93CF9353
S1130120DF938C01D62FC0E06D2FC8010E9482009E
S1130130811102C0CF5F01C0C0E08FE39CE9019749
S1130140F1F700C00000C43079F781E0DF91CF916E
S11301501F910F91089563E084E290E00E944000B3
S113016063E085E290E00E946A0062E084E290E04D
S11301700E94400062E085E290E00E945D0064E03D
S113018087E290E00E94400064E088E290E00E94F0
S11301905D0063E087E290E00E94400063E088E253
S11301A090E00E945D0062E087E290E00E944000DF
S11301B062E088E290E00E946A0064E08AE290E0F3
S11301C00E944C0064E089E290E00E948D00882344
S11301D0C9F32FEF89E698E1215080409040E1F780
S11301E000C0000062E088E290E00E94760063E0D4
S11301F088E290E00E9476002FEF8DE399E421508D
S113020080409040E1F700C0000063E088E290E0A5
S11302100E94760064E088E290E00E94760063E049
S113022085E290E00E94760062E085E290E00E9420
S113023076002FEF81E19AE7215080409040E1F76A
S113024000C0000064E088E290E00E94760063E071
S113025088E290E00E9476002FEF8DE399E421502C
S113026080409040E1F700C0000063E088E290E045
S11302700E94760062E088E290E00E94760062E0EC
S113028085E290E00E94760063E085E290E00E94BF
S113029076002FEF89E698E1215080409040E1F705
S11302A000C0000064E089E290E00E948D00882391
S10B02B0C9F388CFF894FFCFD5
S9030000FC
